S00D000067726167652E7372656311
S11300000C942A000C9447000C9447000C9447006D
S11300100C9447000C9447000C9447000C94470040
S11300200C9447000C9447000C9447000C94470030
S11300300C9447000C9447000C9447000C94470020
S11300400C9447000C9447000C9447000C94470010
S11300500C94470011241FBECFE5D8E0DEBFCDBF0E
S113006010E0A0E6B0E0E0E6FBE002C005900D92EF
S1130070A837B107D9F710E0A8E7B0E001C01D9296
S1130080A837B107E1F70E9493030C94AE050C94D2
S11300900000843409F454C0853448F4823499F15E
S11300A0833408F06AC0813409F083C00FC08236FB
S11300B051F1833620F4813609F07BC007C08336C2
S11300C009F45BC0843609F074C03AC0413069F465
S11300D02AB381E090E0AC0102C0440F551F6A9539
S11300E0E2F7BA01622B6ABB08952AB381E090E07B
S11300F0AC0102C0440F551F6A95E2F7BA0160953E
S113010062236ABB0895413069F427B381E090E02B
S1130110AC0102C0440F551F6A95E2F7BA01622B85
S113012067BB089527B381E090E0AC0102C0440F9F
S1130130551F6A95E2F7BA016095622367BB08957B
S1130140413069F421B381E090E0AC0102C0440F76
S1130150551F6A95E2F7BA01622B61BB089521B37A
S113016081E090E0AC0102C0440F551F6A95E2F7AC
S1130170BA016095622361BB0895413069F424B3E8
S113018081E090E0AC0102C0440F551F6A95E2F78C
S1130190BA01622B64BB089524B381E090E0AC0102
S11301A002C0440F551F6A95E2F7BA0160956223B5
S11301B064BB0895843409F454C0853448F482340B
S11301C099F1833408F06AC0813409F083C00FC008
S11301D0823651F1833620F4813609F07BC007C0A2
S11301E0833609F45BC0843609F074C03AC04130E8
S11301F069F42BB381E090E0AC0102C0440F551FB9
S11302006A95E2F7BA01622B6BBB08952BB381E0C8
S113021090E0AC0102C0440F551F6A95E2F7BA01A1
S1130220609562236BBB0895413069F428B381E083
S113023090E0AC0102C0440F551F6A95E2F7BA0181
S1130240622B68BB089528B381E090E0AC0102C042
S1130250440F551F6A95E2F7BA016095622368BBA3
S11302600895413069F422B381E090E0AC0102C00A
S1130270440F551F6A95E2F7BA01622B62BB0895D9
S113028022B381E090E0AC0102C0440F551F6A958F
S1130290E2F7BA016095622362BB0895413069F4C4
S11302A025B381E090E0AC0102C0440F551F6A956C
S11302B0E2F7BA01622B65BB089525B381E090E0B3
S11302C0AC0102C0440F551F6A95E2F7BA0160956C
S11302D0622365BB0895843481F1853440F482340B
S11302E0F9F08334B8F5813409F040C00CC082368B
S11302F0B9F0833618F48136C9F505C0833651F157
S11303008436A1F51AC02BB381E090E0AC0102C0A1
S1130310440F551F6A95E2F7BA0162276BBB089533
S113032028B381E090E0AC0102C0440F551F6A95E8
S1130330E2F7BA01622768BB089522B381E090E036
S1130340AC0102C0440F551F6A95E2F7BA01622757
S113035062BB089525B381E090E0AC0102C0440F74
S1130360551F6A95E2F7BA01622765BB0895843484
S113037009F451C0853440F4823439F18334C0F532
S1130380813409F05AC00EC08236F9F0833620F465
S1130390813609F052C006C0833651F1843609F023
S11303A04CC039C029B381E090E0062E02C0880F0A
S11303B0991F0A94E2F730E08223932302C09695B2
S11303C087956A95E2F7982F38C026B381E090E0CC
S11303D0062E02C0880F991F0A94E2F730E08223A8
S11303E0932302C0969587956A95E2F7982F25C0C6
S11303F023B381E090E0062E02C0880F991F0A946F
S1130400E2F730E08223932302C0969587956A959C
S1130410E2F7982F12C020B381E090E0062E02C0CC
S1130420880F991F0A94E2F730E08223932302C0D5
S1130430969587956A95E2F7982F892F08958434C5
S1130440C9F0853438F4823499F08334A8F48134C3
S1130450A1F40CC0823661F0833618F4813669F455
S113046005C0833649F0843641F404C06ABB08955C
S113047067BB089561BB089564BB08958434C9F0D3
S1130480853438F4823499F08334A8F48134A1F4A7
S11304900CC0823661F0833618F4813669F405C0E5
S11304A0833649F0843641F404C06BBB089568BBBD
S11304B0089562BB089565BB08958434D1F08534F2
S11304C038F4823499F08334B8F48134B9F40CC02C
S11304D0823661F0833618F4813681F405C08336A0
S11304E059F0843659F405C099B308C086B388BB63
S11304F005C080B382BB02C083B385BB892F089536
S11305008434E9F0853438F48234A9F08334D8F49F
S11305108134E1F40CC0823671F0833618F48136EC
S1130520A9F405C0833679F0843681F408C08BB30E
S113053080958BBB089588B3809588BB089582B35A
S1130540809582BB089585B3809585BB08958234D8
S113055051F1833420F4813409F07BC007C0833423
S113056009F43EC0843409F074C057C0413069F4C2
S11305702BB381E090E0AC0102C0440F551F6A9593
S1130580E2F7BA01622B6BBB08952BB381E090E0D4
S1130590AC0102C0440F551F6A95E2F7BA01609599
S11305A062236BBB0895413069F428B381E090E085
S11305B0AC0102C0440F551F6A95E2F7BA01622BE1
S11305C068BB089528B381E090E0AC0102C0440FF9
S11305D0551F6A95E2F7BA016095622368BB0895D6
S11305E0413069F425B381E090E0AC0102C0440FCE
S11305F0551F6A95E2F7BA01622B65BB089525B3CE
S113060081E090E0AC0102C0440F551F6A95E2F707
S1130610BA016095622365BB0895413069F422B341
S113062081E090E0AC0102C0440F551F6A95E2F7E7
S1130630BA01622B62BB089522B381E090E0AC0161
S113064002C0440F551F6A95E2F7BA016095622310
S113065062BB08956F70843451F1853438F4823468
S1130660C1F08334E8F4813441F50CC0823689F05A
S1130670833618F4813609F505C0833689F084364B
S1130680E1F415C08BB3807F8BBB8BB3682B6BBB42
S1130690089588B3807F88BB88B3682B68BB0895AE
S11306A085B3807F85BB85B3682B65BB089582B312
S11306B0807F82BB82B3682B62BB08956295607FA2
S11306C0843451F1853438F48234C1F08334E8F44D
S11306D0813441F50CC0823689F0833618F48136B2
S11306E009F505C0833689F08436E1F415C08BB36F
S11306F08F708BBB8BB3682B6BBB089588B38F70E3
S113070088BB88B3682B68BB089585B38F7085BB9D
S113071085B3682B65BB089582B38F7082BB82B3A7
S1130720682B62BB08950E94840484E40E943F0500
S113073084E465E041E00E94490084E467E041E02C
S11307400E94490019E000E20F2EF1ECBF2EF02DBB
S11307500F2EF1E8AF2EF02D0F2EF0E8CF2EF4E897
S1130760DF2EFEE1EF2EF0E0FF2EF02D0F2EFAE645
S11307708F2EF0E09F2EF02D0F2EFAE06F2E7724AF
S1130780F02D0F2EF4E74F2EF0E05F2EF02D0F2EFC
S1130790F0E62F2EF0E03F2EF02D84E4612F0E942E
S11307A056051FBC08BF84E467E041E00E94DA00FC
S11307B080E18A95F1F700C084E467E040E00E949C
S11307C0DA00BEBC08B605FEFDCF86B597B508BFF6
S11307D0AEBC08B605FEFDCF66B577B508BF1DBC37
S11307E01CBC1EBC681B790B80E090E028E237E853
S11307F040E050E00E945905A70196010E948C0533
S1130800E90120353105D8F0959AA3EFB1E01197AD
S1130810F1F700C0000095980E941405C1010E94E0
S113082005058FE996E8A1E081509040A040E1F7EA
S113083000C0000084E4612F0E945605AECF959A53
S1130840A9EFB0E01197F1F700C0000095980E945D
S11308501405C4010E940505CE01B3010E94780568
S1130860C82F862F805D0E94E3048C2F805D0E9438
S1130870E304C2010E9405058FE996E8A1E08150D6
S11308809040A040E1F700C00000115084E4612FC3
S11308900E94560582CF82E460E041E00E94DA00C3
S11308A08FE99FE00197F1F700C0000082E460E067
S11308B040E00E94DA008FE99FE00197F1F700C061
S11308C000000895CF93C82F682F62956F7081E45C
S11308D00E945E0382E461E040E00E94DA000E942C
S11308E04B0481E46C2F0E945E0382E461E040E0EB
S11308F00E94DA000E944B048FEC97E00197F1F715
S113090000C00000CF9108958FEF91EEA4E08150D4
S11309109040A040E1F700C0000081E464E041E0C1
S11309200E94490081E465E041E00E94490081E4BD
S113093066E041E00E94490081E467E041E00E94F2
S1130940490082E460E041E00E94490082E462E000
S113095041E00E94490082E461E041E00E944900D4
S113096082E462E040E00E94DA0082E00E946204D5
S1130970AFE1BEE41197F1F700C0000088E20E94E5
S113098062048FEC97E00197F1F700C000008EE05D
S11309900E946204AFECB7E01197F1F700C00000C9
S11309A081E00E9462048FE19EE40197F1F700C0A8
S11309B0000086E00E946204AFECB7E01197F1F703
S11309C000C000000895CF93C82F682F62956F7000
S11309D081E40E945E0382E461E041E00E94DA0067
S11309E00E944B0481E46C2F0E945E0382E461E068
S11309F041E00E94DA000E944B048FEC97E00197DB
S1130A00F1F700C00000CF910895CF93DF93EC017C
S1130A108881882331F021960E94E30489918823F8
S1130A20D9F7DF91CF91089581E00E9462048FE1AC
S1130A309EE40197F1F700C000000895282F21508B
S1130A40223070F4613170F4662371F0813019F44E
S1130A50962F91580AC0823041F4962F915405C0C4
S1130A6090E803C090E801C090E8892F0E946204D6
S1130A708FEC97E00197F1F700C000000895CF9341
S1130A80C82F60E041E00E9449008C2F61E041E002
S1130A900E9449008C2F62E041E00E9449008C2FA3
S1130AA063E041E00E944900CF9108950E942A0327
S1130AB00895629FD001739FF001829FE00DF11DA4
S1130AC0649FE00DF11D929FF00D839FF00D749FC4
S1130AD0F00D659FF00D9927729FB00DE11DF91F70
S1130AE0639FB00DE11DF91FBD01CF0111240895CD
S1130AF0AA1BBB1B51E107C0AA1FBB1FA617B70740
S1130B0010F0A61BB70B881F991F5A95A9F780955B
S1130B109095BC01CD010895A1E21A2EAA1BBB1B1E
S1130B20FD010DC0AA1FBB1FEE1FFF1FA217B307B5
S1130B30E407F50720F0A21BB30BE40BF50B661FCB
S1130B40771F881F991F1A9469F76095709580958F
S1130B5090959B01AC01BD01CF010895F894FFCF9E
S1130B606E6F206F626A6563740064697374616E8A
S10B0B7063653D00636D0000A4
S9030000FC
